:020000040800F2
:1000000000000120C5020008CD020008D10200084E
:1000100045030008490300089103000800000000A0
:10002000000000000000000000000000D9030008EC
:10003000DD03000800000000E10300083D0900089E
:10004000F5030008F5030008F5030008F5030008B0
:10005000F5030008F5030008F5030008F5030008A0
:10006000F5030008F5030008F5030008F503000890
:10007000F5030008F5030008F5030008F503000880
:10008000F5030008F5030008F50300080000000070
:10009000000000000000000000000000F503000860
:1000A000F5030008F5030008F5030008F503000850
:1000B000F5030008F5030008F5030008F503000840
:1000C000F5030008F5030008F5030008F503000830
:1000D000F5030008F5030008F50300080000000020
:1000E000F5030008F5030008F50300080000000010
:1000F000000000000000000000000000F503000800
:1001000000000000F5030008F5030008F5030008EF
:1001100000000000000000000000000000000000DF
:10012000F5030008F5030008F5030008F5030008CF
:10013000F5030008000000000000000000000000BF
:10014000000000000000000000000000F5030008AF
:10015000F5030008F5030008F5030008F50300089F
:10016000F5030008F503000800000000000000008F
:10017000000000000000000000000000000000007F
:1001800000000000F503000800000000000000006F
:10019000F503000800B583B000F0BCF9384B394ACC
:1001A0001360394A136039490CE00A684B6801F161
:1001B0000C04886803E01168196004330432984223
:1001C000F9D82146324B9942EFD32E4B1A68314B66
:1001D0009A4204D12C4B1A682F4B9A4200D0FEE76A
:1001E000274B2E4A13602E4A13602E4B0AE0194605
:1001F00051F8082B5B6802E00020106004329A423C
:10020000FAD30B46284A9342F1D3244B1B6813B907
:10021000234B1B6803B1FEE700F088F9694601A88B
:1002200000F022F9214C224B1C1BA410002504E0F5
:100230001E4B53F8253098470135AC42F8DC1D4C75
:100240001D4B1C1BA410002504E01A4B53F825304D
:1002500098470135AC42F8DC0099019800F06EFE39
:100260000546164C164B1C1BA41004E0013C134B16
:1002700053F824309847002CF8DC284600F0D0F8DA
:10028000BABADECA000000207C000020F803000893
:1002900010040008785634123254769880000020FA
:1002A000B001002010040008200400082004000809
:1002B000200400082004000820040008200400088E
:1002C0002004000808B5FFF765FF00BF00BEFEE789
:1002D0001EF0040F0CBFEFF30880EFF309807146A6
:1002E000414A10472DE9F04182B004468846134B3D
:1002F0005E6B9F6B9D6A1B6B13F0020F0DD00F4B53
:10030000DB6A002B09DA4BF6AB6100F08BF920B108
:100310004FF00042094BDA620CE0094800F0ACF8FB
:10032000CDF800803B4632462946204600F002F9CF
:1003300000BEFEE702B0BDE8F08100BF00ED00E0C6
:10034000A419000800BEFEE71EF0040F0CBFEFF377
:100350000880EFF309807146244A10472DE9F041E7
:1003600082B004468846084B5E6B9F6B9D6A0748C7
:1003700000F082F8CDF800803B4632462946204600
:1003800000F0D8F800BEFEE700ED00E0B419000868
:100390001EF0040F0CBFEFF30880EFF309807146E5
:1003A000134A10472DE9F04182B004468846084BB5
:1003B0005E6B9F6B9D6A074800F05EF8CDF8008089
:1003C0003B4632462946204600F0B4F800BEFEE720
:1003D00000ED00E0C019000800BEFEE700BEFEE729
:1003E00000BEFEE770470000E50200085D0300085C
:0803F000A503000800BEFEE7B2
:1003F800A41B00080000002080000020A41B0008A7
:10040800000000100000001080000020B40100204F
:080418000000001000000010BC
:10042000FEE700BF08B50D4B1B6813B90C4A0B4B18
:100430001A600A4B1A68C31C23F0030313440949CA
:100440008B4206D900F092FD0C2303604FF0FF3081
:1004500008BD02490B60104608BD00BF84000020A3
:10046000B401002000FC002001230360014B0B605D
:10047000704700BF040000200FB400B583B004AB88
:1004800053F8042B01938021064800F0A1FD0028B9
:1004900003DD0146034800F039F803B05DF804EBD2
:1004A00004B070478C0000202DE9F04385B004466D
:1004B0000F46435613BB042528462146ABBE0446CF
:1004C0001FE03546102E28BF1025002306E014F942
:1004D000011B04AA1A4402F8101C0133AB42F6D3E4
:1004E00004AA1344002203F8102CE9464FF0040834
:1004F00040464946ABBE8046761B00E00E46002EC5
:10050000DFD1384605B0BDE8F08300BF08B5FFF77E
:10051000CBFF08BD08B500F095F8024B024A9A607F
:1005200008BD00BF00ED00E00000000808B500F0C5
:10053000A9F808BDF8B504460D4617461E462648DC
:10054000FFF79AFF21682548FFF796FF6168244866
:10055000FFF792FFA1682348FFF78EFFE16822486A
:10056000FFF78AFF21692148FFF786FF616920486C
:10057000FFF782FFA1691F48FFF77EFFE1691E4870
:10058000FFF77AFF1D48FFF777FF29461C48FFF762
:1005900073FF1C4CE16A1C48FFF76EFF216B1B4880
:1005A000FFF76AFFE16B1A48FFF766FF15F0800F4F
:1005B00003D039461748FFF75FFF15F4004F03D00B
:1005C00031461548FFF758FF1448FFF755FF0699C5
:1005D0001348FFF751FFF8BD881800089818000865
:1005E000A8180008B8180008C8180008D81800088B
:1005F000E8180008F8180008081900081819000879
:100600002419000800ED00E034190008441900081E
:1006100054190008641900087419000884190008A6
:100620008C19000883691A888A4207D10268033A44
:10063000012A05D8023383610120704700207047EA
:10064000002070470C4B1A6842F001021A6000212A
:1006500099601A6822F0847222F480321A60074A84
:100660005A601A6822F480221A60D9604FF0006242
:10067000034B9A60704700BF0038024010300024DE
:1006800000ED00E0224B9B6803F00C03042B07D025
:10069000082B09D0002B2DD11E4A1F4B1A602CE0CD
:1006A0001E4A1D4B1A6028E0194B5A685B6803F01C
:1006B0003F0312F4800F09D0184AB2FBF3F2144B37
:1006C0005B68C3F3881303FB02F208E0114AB2FB34
:1006D000F3F30F4A5168C1F3881101FB03F20C4B8D
:1006E0005B68C3F3014301335B00B2FBF3F30A4AD7
:1006F000136002E0074A084B1A60054B9B68C3F37E
:100700000313074AD15C044A1368CB401360704757
:10071000003802400024F4000C00002040787D01E5
:10072000D0190008084B1B781BB90122064B1A7020
:10073000704710B5054C21780548FFF79DFE2378DA
:100740000133237010BD00BF0C010020AC0100205C
:10075000E019000800000000F8B516A3D3E9002353
:10076000052000F0F5F8104800F0DEF800220F4BED
:100770001A7011E0DFF844E0A7003B199E007644B0
:100780000B4D05EB041595E80F0086E80F001A469F
:1007900032610134054B1C70044B1C78052CE9D9DF
:1007A000F8BD00BFAFF3008025070008AD010020B1
:1007B000001A000840787D010000000010010020B0
:1007C00010B50022174B1A7027E003EB83018A0053
:1007D00015490A445068E0B103EB83018A001249CD
:1007E0000A44126972B980470E4B1B780E489A0072
:1007F000D418A1000C4601448968053922460244F8
:10080000116106E003EB83039900074B1944053A95
:100810000A61044A137801331370024B1B78052BCD
:10082000D3D910BDAD0100201001002008B500F0A3
:1008300073F8054B1B78012BFBD1FFF7C1FF00229A
:10084000014B1A70F5E700BF0C01002010B5054CF4
:100850002178002000F01CFA237883F00103237034
:1008600010BD00BF1100002010B5054C21780120FB
:1008700000F00EFA237883F00103237010BD00BF4F
:100880001200002010B5054C2178022000F000FA7B
:10089000237883F00103237010BD00BF13000020F4
:1008A00000B583B00DF10701002000F0BBF99DF801
:1008B00007300D4A1278934204D10C490A7801326C
:1008C0000A7002E00021094A1170084A1278052ACC
:1008D00004D1074A13700021044A1170024A1370B0
:1008E00003B05DF804FB00BF8901002088010020EF
:1008F0001000002008B5064B1B7833B901231A46B7
:100900000D21044800F096FA08BD00F0E9FA08BD90
:1009100010000020F0190008024B00229A60072204
:100920001A60704710E000E018B1034A1060002020
:1009300070470220704700BF8C01002008B5024BB1
:100940001B68984708BD00BF8C0100200000000014
:10095000F0B41B4C4FF0FF35A4185D4114A7D7E944
:100960000067AF4208BFA64208D346F2A81303FBB4
:1009700000F00138134B5860002014E012F1FF32F0
:1009800043F1FF330CA5D5E900459D4208BF9442D1
:1009900008D34FF47A5303FB00F00138094B586039
:1009A000002000E00320F0BC704700BFAFF30080E0
:1009B0003F54890000000000FF23F4000000000005
:1009C000FFDB0BFF10E000E038B5564B99685C6820
:1009D00018B98122534B1A6038BD012840D1514AC1
:1009E000136843F4803313604FF6FF7200E01A4639
:1009F0004C4B1B6813F4003F04D1531E9BB2002ADA
:100A0000F5D11A46474B1B6813F4003F03D04FF64D
:100A1000FF72002000E0012021F0020141F00101FD
:100A2000404CA3681943A16000E01A463D4B9B6807
:100A300013F0040F08D13B4B9B6813F0080F03D150
:100A4000531E9BB2002AF0D1364B9B6813F0040F63
:100A500064D0344B9B6813F0080F62D0012038BD7E
:100A600002285DD12F4A136843F4803313604FF698
:100A7000FF7301E0013B9BB22A4A126812F4003F67
:100A800001D1002BF6D1274A126812F4003F03D09F
:100A90004FF6FF73002000E0012044F4800545F08C
:100AA0001905204A5168294351601F4D254351685B
:100AB000294351601D4D25435168294351601168F8
:100AC00041F08071116001E0013B9BB2154A126850
:100AD00012F0007FF8D0134A126812F0007F02D0A3
:100AE0004FF6FF7300E001200E498A6842F00202CF
:100AF0008A6000E013460B4A926812F0080F03D197
:100B00005A1E92B2002BF5D1064B9B6813F0080FCA
:100B100007D10748FFF7B0FC012038BD012038BDE0
:100B2000002038BD0038024019324000193241001F
:100B3000881A0008024A136B18431063704700BFFD
:100B4000003802400268837901798B4011680B43B9
:100B500013600268437901798B4091680B4393607D
:100B60000268037A51680B4353600268C3790179C4
:100B70008B40D1680B43D360704700BF0A4B98424B
:100B80000CD8B1F5004F0BD8012A02D181610020A9
:100B900070473AB90904816100207047022070470C
:100BA000032070470020704700100240074B984216
:100BB00007D8B1F5004F06D803691940117000201D
:100BC0007047022070470320704700BFFF0F0240AC
:100BD000034B984202D841610020704702207047C1
:100BE0000010024030B585B0002414E00C496300C9
:100BF00018198200881805798DF808508A580192D2
:100C000042798DF80A20C3798DF80B3001A8FFF7DF
:100C100099FF0134E4B2012CE8D905B030BD00BF22
:100C2000941A000838B5064D42001418A3001C465B
:100C30002B440A46197A2859FFF7B8FF38BD00BF80
:100C4000941A000830B585B000241AE00F486300FC
:100C500019198A0081184D798DF80A500D798DF88F
:100C60000850825801928A798DF809200A7A8DF805
:100C70000C20CB798DF80B3001A8FFF763FF01340E
:100C8000E4B2032CE2D905B030BD00BFAC1A0008B5
:100C900038B5074D4400221893002B441A7A20449B
:100CA00084004A40D97A2859FFF768FF38BD00BF51
:100CB000AC1A000870B581B21148FFF789FF114CDA
:100CC00094F88A502A46B4F88D10D4F88200FFF7C1
:100CD00055FF2A46B4F88010D4F87500FFF74EFF90
:100CE000A66EB4F8734085F0010221463046FFF746
:100CF00045FF2A4621463046FFF740FF70BD00BF42
:100D000000000240E01A0008F8B581B21148FFF770
:100D10005FFF114C94F88A5085F001073A46B4F809
:100D20008D10D4F88200FFF729FF2A46B4F880100E
:100D3000D4F87500FFF722FFA66EB4F873403A4668
:100D400021463046FFF71AFF2A4621463046FFF774
:100D500015FFF8BD00000240E01A000810B584B08D
:100D600000241BE004EB440304EB83030D4A13440B
:100D70005A798DF80A201A798DF808201A6801929C
:100D80009A798DF809201A7A8DF80C20DB798DF884
:100D90000B3001A8FFF7D6FE0134E4B20A2CE1D9EA
:100DA00004B010BDE01A000808B5164B1B78032BE1
:100DB00024D8DFE803F0020910173C20FFF77AFF80
:100DC0000122104B1A7019E00E20FFF773FF022268
:100DD0000C4B1A7012E00120FFF76CFF0322094B45
:100DE0001A700BE00620FFF765FF6FF07F00FFF73A
:100DF00061FF0123044A1370024A1370014B1878F3
:100E000008BD00BF900100209C01002000B583B008
:100E1000074B1B88ADF80430013802AB184410F8BA
:100E2000040C084440B2FFF745FF03B05DF804FB33
:100E3000DC1A000838B50F4C2478012C13D1022598
:100E40000D4C257004250B4C25700C4C2060217135
:100E50006271A37119461046FFF7D8FF0022084BB4
:100E60001A70032038BD022C01D9042038BD02209D
:100E700038BD00BF90010020140000209401002024
:100E8000AE01002008B5124B1A79124B1B789A421A
:100E900017D90F2B0BD100210220FFF7B7FF0C4B06
:100EA0001A680C4B1B78D056FFF72EFF04E0084A57
:100EB0001268D056FFF728FF064A137801331370E3
:100EC00008BD0123044A1370044A137008BD00BF13
:100ED00094010020AE0100209001002014000020A9
:100EE0000322014B1A7070471400002008B501203E
:100EF000FFF7E0FE0123024A1370024A137008BD97
:100F0000140000209001002008B50A4B1B78012B2B
:100F100002D0FFF749FF08BD074B1B78022B02D018
:100F2000032B03D008BDFFF7ADFF08BDFFF7DEFFC1
:100F300008BD00BF9C0100201400002010B5012056
:100F4000FFF742FD044628B90120FFF7F3FD022018
:100F5000FFF7F0FD2CB9FFF775FEFFF743FEFFF733
:100F6000FDFEFFF7F9FBFFF761FCFEE7014B186898
:100F7000704700BF7800002030B5141E05469BB0B6
:100F8000184604DA8B232B604FF0FF301DE04FF43E
:100F90000273ADF80C3014BF04F1FF332346029303
:100FA00005934FF6FF7300910491ADF80E300246A1
:100FB0001E9B6946284600F073F8431CBCBF8B2378
:100FC0002B6014B1009B00221A701BB030BD0000D2
:100FD00007B5009313460A46014603480068FFF729
:100FE000CBFF03B05DF804FB780000202DE9F0474B
:100FF0008E689E4282460C46914698463ED88A8923
:1010000012F4906F3AD0256809696F1A6569022356
:1010100005EB450595FBF3F57B1C43449D4238BF2A
:101020001D4653050FD5294600F08EFB064698B1A4
:101030003A46216900F014FBA38923F4906343F03E
:101040008003A38113E02A4600F0DCFB064670B95A
:101050002169504600F02AFB0C23CAF80030A3890E
:1010600043F04003A3814FF0FF30BDE8F0872661D5
:1010700065613E44ED1B2660A5604646464528BF97
:10108000464632464946206800F0F5FAA3689B1BA5
:10109000A36023681E4426600020BDE8F08700009E
:1010A0002DE9F04F9DB0804603938B891C060D46B9
:1010B00016460DD50B695BB9402100F045FB286051
:1010C000286118B90C23C8F80030CDE040236B61CB
:1010D0000023099320238DF82930DFF89CB13023B9
:1010E0008DF82A3037463C4614F8013B1BB9B7EB64
:1010F000060910D003E0252BF9D02746F3E74B462D
:10110000324629464046FFF771FF013000F0A780C4
:10111000099B4B4409933B78002B00F0A0800023EF
:101120004FF0FF3204930793059206938DF85330E6
:101130001A930126052221784E4800F041FA671CD7
:10114000049B38B14B4A801A06FA00F01843049009
:101150003C46EFE7D90644BF20228DF853201A07FA
:1011600044BF2B228DF8532022782A2A03D0079AD5
:1011700000210A200BE0039A111D12680391002A36
:1011800010DA524243F00200079204900BE0274627
:1011900001343B78303B092B03D800FB023201219C
:1011A000F5E701B107923B782E2B1ED17B782A2BD5
:1011B0000AD1039B1A1D1B680392002BB8BF4FF086
:1011C000FF330237059310E000230593781C19467E
:1011D0000A24074601303A78303A092A03D804FB3A
:1011E00001210123F5E703B1059103223978224853
:1011F00000F0E6F940B14023CBEB000003FA00F029
:10120000049B18430490013739781C488DF8281046
:1012100006227E1C00F0D4F988B1194B33B9039B28
:10122000073323F007030833039314E003AB009361
:101230002A46144B04A94046AFF3008007E003ABF5
:1012400000932A460F4B04A9404600F093F8B0F1F2
:10125000FF3F824603D0099B5344099342E7AB8981
:101260005B0601D4099801E04FF0FF301DB0BDE8E6
:10127000F08F00BF6F1B0008751B0008791B00086A
:1012800000000000ED0F00082DE9F04791461F46D1
:101290000A698B68DDF820809342B8BF1346C9F80D
:1012A000003091F8432006460C4612B10133C9F8CC
:1012B00000302368990642BFD9F800300233C9F8DC
:1012C0000030256815F0060510D104F1190A07E071
:1012D0000123524639463046C04701301AD0013505
:1012E000E368D9F800209B1A9D42F1DB94F8433063
:1012F0002268003318BF012392060FD5E1185A1C4B
:10130000302081F84300224494F8451082F84310BD
:10131000023303E04FF0FF30BDE8F08704F14302F1
:1013200039463046C0470130F4D02268D9F8005021
:10133000E36802F00602042A08BF5D1B2269A36865
:101340000CBF25EAE57500259342C4BF9B1AED1832
:101350004FF000091A344D4509D001232246394681
:101360003046C0470130D5D009F10109F3E700202C
:10137000BDE8F0872DE9F04317460A7E85B06E2A56
:10138000984606460C460C9B01F1430E00F0AE80D9
:1013900011D8632A22D009D8002A00F0BB80582A2D
:1013A00040F0CA8081F84520834955E0642A1ED068
:1013B000692A1CD0C0E0732A00F0B08009D86F2AD7
:1013C0002ED0702A40F0B8800A6842F020020A60ED
:1013D0003EE0752A24D0782A3AD0ADE01A6801F1AF
:1013E0004205111D1960136884F84230A8E0216895
:1013F0001A6811F0800F02D0111D196008E011F079
:10140000400F02F10401196002D0B2F9003000E08F
:101410001368002B3CDA2D225B4284F8432037E02E
:1014200021681A6811F0800F02D0111D196007E0C1
:1014300011F0400F02F10401196001D0138800E09F
:101440001368227E5C496F2A14BF0A2208221BE01F
:1014500078225A4984F845202268186812F0800FD3
:1014600000F104051D6003D1550601D5038800E095
:101470000368D00744BF42F0200222601BB92268F3
:1014800022F0200222601022002084F8430001E0B4
:1014900049490A226568A560002D08DB206820F014
:1014A000040020602BB9002D7DD175460CE0002B87
:1014B00079D07546B3FBF2F002FB1033CB5C05F834
:1014C000013D03460028F5D1082A0BD12368DA072D
:1014D00008D5236962689A42DEBF302305F8013CD3
:1014E00005F1FF35C5EB0E0323612EE008681A688D
:1014F000496910F0800F03D0101D1860136808E0D0
:1015000010F0400F02F104001860136801D0198038
:1015100000E0196000232361754616E01A68111D6A
:101520001960156862680021284600F049F808B182
:10153000401B6060636804E004F1420584F84220C7
:1015400001232361002384F84330CDF800803B461B
:1015500003AA21463046FFF797FE013002D14FF033
:10156000FF3026E023692A4639463046C04701301D
:10157000F5D023689B0710D5002504F1190907E071
:1015800001234A4639463046C0470130E7D001358D
:10159000E368039A9B1A9D42F2DBE068039B984242
:1015A000B8BF184605E00B7884F8423004F14205D4
:1015B0008AE705B0BDE8F083801B0008911B000896
:1015C00001F0FF01102A2BDB10F0070F08D010F8F4
:1015D000013B013A8B422DD010F0070F42B3F6D1F8
:1015E000F0B441EA012141EA014122F007047FF011
:1015F00000070023F0E80256083C85EA010586EA68
:10160000010685FA47F5A3FA87F586FA47F6A5FAA3
:1016100087F68EB9EED1F0BC01F0FF0102F00702AF
:1016200032B110F8013B013A83EA010313B1F8D15A
:101630000020704701387047002D06BF354603383B
:10164000073815F0010F07D1013015F4807F02BF74
:10165000013015F4C03F0130F0BC0138704700BFC5
:1016600010B5431E0A44914204D011F8014B03F80F
:10167000014FF8E710BD884210B501EB020301D815
:10168000421E0BE09842FBD28118D21AD34204D0FA
:1016900013F8014D01F8014DF8E710BD994204D04F
:1016A00011F8014B02F8014FF8E710BD38B50546B7
:1016B000002946D051F8043C0C1F002BB8BFE41899
:1016C00000F0D6F81F4A1368114613B9636014601E
:1016D00032E0A3420ED92268A018834204BF1868E2
:1016E0005B68636004BF121822600C6024E0A242B1
:1016F00003D813465A68002AF9D118681918A1426C
:101700000BD12168014458188242196014D1106825
:1017100052685A60014419600EE002D90C232B6014
:101720000AE021686018824204BF10685268626053
:1017300004BF091821605C602846BDE8384000F00D
:1017400098B838BDA401002070B5CD1C25F0030564
:1017500008350C2D38BF0C25002D064601DBA942AB
:1017600002D90C23336046E000F082F8234B1C685A
:101770001A462146A1B10B685B1B0ED40B2B03D973
:101780000B60CC18CD501EE08C420DBF63684B68D7
:101790006360136018BF0C4615E00C464968E9E722
:1017A000174C23681BB9304600F052F820602946D8
:1017B000304600F04DF8431C18D0C41C24F003043C
:1017C000A0420DD12560304600F053F804F10B0023
:1017D000231D20F00700C31A0ED05A42E25070BDFC
:1017E000211A304600F034F80130EBD10C2333607D
:1017F000304600F03EF8002070BD00BFA40100207C
:10180000A0010020F8B5074615460E4621B911463D
:10181000BDE8F840FFF798BF1AB9FFF747FF284621
:10182000F8BD00F027F885420ED929463846FFF763
:101830008BFF044650B131462A46FFF711FF31466F
:101840003846FFF733FF01E03046F8BD2046F8BDCB
:1018500038B5064C0023054608462360FEF7E2FD36
:10186000431C02D1236803B12B6038BDA8010020BE
:101870007047704751F8040C0028BEBF091851F892
:10188000043CC01804387047537461636B2066725F
:10189000616D653A0A000000205230203D2020256D
:1018A0003038580A00000000205231203D20202509
:1018B0003038580A00000000205232203D202025F8
:1018C0003038580A00000000205233203D202025E7
:1018D0003038580A0000000020523132203D2025C7
:1018E0003038580A00000000204C52203D202025AE
:1018F0003038580A00000000205043203D202025A9
:101900003038580A0000000020505352203D202556
:101910003038580A000000004653522F4641523AD0
:101920000A0000002043465352203D202025303835
:10193000580A00002048465352203D2020253038C8
:10194000580A00002044465352203D2020253038BC
:10195000580A00002041465352203D2020253038AF
:10196000580A0000204D4D464152203D2025303878
:10197000580A00002042464152203D2020253038A0
:10198000580A00004D6973630A000000204C522F72
:101990004558435F52455455524E3D2025303858E6
:1019A0000A0000005B486172644661756C745D0AF0
:1019B000000000005B4275734661756C745D0A003F
:1019C0005B55736167654661756C745D0A00000064
:1019D00000000000000000000102030406070809DF
:1019E0004350554C4F4144203D2025640A000000DF
:1019F00052616D6164616E4B617265656D000000DE
:101A0000601A00084D080008F40100000000000002
:101A1000681A000869080008E8030000F4010000E3
:101A2000701A000885080008DC050000E8030000C3
:101A3000781A0008A10800080A0000000000000051
:101A4000841A0008090F0008050000003200000099
:101A5000841A0008F50800080A000000640000006D
:101A60004C454431000000004C4544320000000069
:101A70004C454433000000004465626F756E636539
:101A8000000000004C4344004E6F744F6B20504CDC
:101A90004C33000000040240060000010800000072
:101AA0000004024008000001100000000004024091
:101AB00000010000000000010004024002010000DB
:101AC00000000002000402400401000000000004C5
:101AD000000002400A0100000000002080C0000059
:101AE00000000240000100000000000100000002B0
:101AF000400201000000000002000000024004015A
:101B00000000000000040000000240060100000088
:101B10000000080000000240080100000000001062
:101B200000000002400A0100000000002000000048
:101B300002400C0100000000004000000002400EC6
:101B40000100000000008000000402401C010000B1
:101B50000000000040000402401A010000000000E4
:101B600000200004024018010000000000001023C3
:101B70002D302B2000686C4C006566674546470099
:101B800030313233343536373839414243444546B3
:101B90000030313233343536373839616263646549
:021BA0006600DD
:101BA4007856341288000020000000000024F4005D
:101BB4000101010101FFFFFF00000000000000001F
:101BC4000000000000000000000000000000000011
:101BD4000000000000000000000000000000000001
:101BE40000000000000000000000000000000000F1
:101BF40000000000000000000000000000000000E1
:101C040000000000000000000000000000000000D0
:101C140000000000000000001800002032547698F4
:040000050800019559
:00000001FF
